:020000022000DC
:106000000000042029020A0069020A0099110A000E
:106010006D020A006F020A0071020A00000000000F
:10602000000000000000000000000000CD000A0099
:1060300075020A0000000000ED000A0079020A0063
:1060400061040A007B020A00D5DE09003DCB09008D
:106050007B020A007B020A00E9E009007B020A00D9
:106060007B020A007B020A007B020A007B020A0014
:106070007B020A007B020A007B020A007B020A0004
:106080007B020A005DFE09007B020A007B020A0017
:106090007B020A007B020A00A5D109007B020A00EC
:1060A0007B020A007B020A007B020A007B020A00D4
:1060B0007B020A007B020A000000000000000000D2
:1060C0007B020A007B020A007B020A0005090A0023
:1060D0007B020A007B020A007B020A00DDC609007F
:1060E000E1DE09007B020A007B020A0000000000DA
:1060F000000000007B020A000000000035090A00D1
:10610000000000000000000000000000000000008F
:10611000000000000000000000000000000000007F
:10612000000000000000000000000000000000006F
:10613000000000000000000000000000000000005F
:10614000000000000000000000000000000000004F
:10615000000000000000000000000000000000003F
:10616000000000000000000000000000000000002F
:10617000000000000000000000000000000000001F
:10618000000000000000000000000000000000000F
:1061900000000000000000000000000000000000FF
:1061A00000000000000000000000000000000000EF
:1061B00000000000000000000000000000000000DF
:1061C00000000000000000000000000000000000CF
:1061D00000000000000000000000000000000000BF
:1061E00000000000000000000000000000000000AF
:1061F000000000000000000000000000000000009F
:1062000010B5054C237833B9044B13B10448AFF3F0
:1062100000800123237010BDD4490020000000003D
:10622000BCEE0C0008B5034B1BB103490348AFF3A8
:10623000008008BD00000000D8490020BCEE0C0022
:10624000A3F5803A704700BF174B002B08BF134BD4
:106250009D46FFF7F5FF00218B460F461348144A71
:10626000121A85F09BF90E4B002B00D098470D4B6E
:10627000002B00D098470020002104000D000D489D
:10628000002802D00C48AFF3008085F053F82000BE
:1062900029007AF00BF884F065FD00BF00000800CB
:1062A000000000000000000000000420D44900208D
:1062B00044B9012000000000000000007047704752
:1062C00003681A6AC36AD31A1944B1FBF2F302FBDA
:1062D0001311036B8B4210B50BD94C09C26B012310
:1062E00001F01F0103FA01F152F824300B4342F888
:1062F0002430002010BD43798279C07904331344DF
:106300001844704710B50B6804689C4209D0406877
:106310004A68904205D0944203D0181A18BF012051
:1063200010BD0020FCE70368013304D04068431C23
:10633000584258417047012070478172704770473A
:106340004020704720207047102070476FF01800E1
:1063500070476FF0180070476FF018007047704773
:1063600070476FF01800704700207047BBEE090AB5
:10637000704784B004A800E90E006FF0180004B064
:1063800070476FF0180070476FF01800704703688F
:10639000D3F8E03018470368D3F8DC3018474AB127
:1063A00016290B466FF00800A8BF16238342B8BF1A
:1063B000034613700931C9B220292CBF6FF00C00BD
:1063C00000207047836841601944C1607047002015
:1063D0007047002070471C3070470120704770479D
:1063E00024307047084A8B8992F8300108B1422B5B
:1063F00008D0012B05D00A3B012B8CBF00200120C7
:1064000070471846704700BFF0830020006A431EA3
:106410005842584170470020704747F2305070474B
:106420002038704790F83C00831E5842584170470E
:106430002038704790F83800831E58425841704702
:1064400000207047007B704700207047006A431EA1
:1064500058425841704700207047024B93F858014A
:10646000704700BFF0830020014B93F8490170474B
:10647000F0830020002070472038704700207047CC
:1064800001207047704700207047024B93F862016B
:10649000704700BFF08300204B6A032B01BF034B02
:1064A0001B68B3F850300384002070478C370120FC
:1064B000F2E7F1E71C307047002070470068096878
:1064C00003689B681847704700207047C0F8801128
:1064D000704780ED5F0A70470020704700680968C8
:1064E00003689B6818470068096803689B68184739
:1064F0000068096803689B68184770477047022A5C
:1065000006D0032A02D0012A00D101600020704782
:106510000B680360FAE7F2E7012A08BF0160002078
:106520007047F9E7F8E7F7E7F6E7F5E7F4E7F3E7A9
:10653000F2E7F1E7F0E7EFE7EEE7EDE7ECE7EBE7AF
:10654000EAE7E9E7E8E7E7E7E6E7E5E7E4E7E3E7DF
:10655000E2E7E1E7E0E7DFE7DEE7DDE7DCE7DBE70F
:10656000DAE7D9E7D8E7D7E7D6E7D5E7D4E7D3E73F
:10657000D2E7D1E7D0E7CFE7CEE7CDE7CCE7CBE76F
:10658000CAE7C9E7C8E7C7E7C6E7C5E7C4E7C3E79F
:10659000C2E7022A06D0032A02D0012A00D10160F4
:1065A000002070470B680360FAE7F2E7F1E7F0E7D5
:1065B000EFE7EEE7EDE7203870472038704701201D
:1065C0007047002070470120704770477047704740
:1065D000007B704775F064BB75F062BB0846102203
:1065E000002184F0DBBF2DE9F74F984603680C9C2F
:1065F0001B6A0E9D434582460F46914627D8344874
:1066000058F0A8FFDAF80000B9F1000F23D0D9F84C
:10661000003098451FD1D9F80410A1421BD88269D7
:1066200001EB020B5C4516D2ABEB040BAB45D9F882
:10663000083028BFAB46611A19440D985A4684F0B9
:1066400085FF0D9B5B440D935C44A5EB0B05002D72
:10665000D8D1284639E03A68436990450ED1796827
:106660008C420BD301EB030B5C4507D2ABEB040B65
:10667000AB45BB6828BFAB46611ADDE74168B4FB98
:10668000F3F203FB12428C46A2B99D4212D3B5FB32
:10669000F3FB03FB1B5BA5EB0B060D9B0096224651
:1066A00041466546A84780B90D9B33440D93344459
:1066B0005D46CCE7A21A0093C7F80080BB687A60F9
:1066C00041466646B0470028C1D003B0BDE8F08F10
:1066D0000CF80A002DE9F04F87B0DDE910450646B9
:1066E0008B46174625444FF001090DF1170AA3EB1D
:1066F0000408AC4201D1012011E008EB040300932F
:10670000CDE901A93B46002259463046FFF76BFF11
:1067100028B914F8013B9DF817209A42E9D007B038
:10672000BDE8F08F2DE9F04786B005460F461446C8
:1067300000F11409D6184FF0010A0DF11708B44200
:1067400003D1002006B0BDE8F0870094CDE9018AAE
:106750003B46002249462846FFF745FF0134002802
:10676000F0D10E98012241464FF0F0F8E7E710B55E
:106770004468A318436011B1204684F0E7FE01206D
:1067800010BD10B54468A3184360084611B12146F6
:1067900084F0DCFE012010BDF8B5C5690E68083D27
:1067A000AE420F4613D3B6FBF5F0013884F090FAF1
:1067B000841CA6EB8404B4FBF5F4204684F088FA2C
:1067C000A6EB800004FB15053D602046F8BD0020C7
:1067D000FCE72DE9F04F8BB09146DDE9142A07461E
:1067E000013A00680593884607A90792FFF7D4FF8E
:1067F000059B05460DF1200B194650460593FFF702
:106800005FFD024618BB15B305F00106C6F1020490
:10681000A100CDE901B100904A46059B41463846AA
:10682000FFF7E1FE024690B9013C944207DC0AAB57
:1068300003EB8404023E54F8083C3544DCE7089935
:106840005046FFF73DFD01220028EED002461046DB
:106850000BB0BDE8F08F2DE9F04F89B00646DDF8AA
:106860004C90059288464BB94FF0FF32C9F8002092
:10687000149A0020136009B0BDE8F08F013B07A90E
:1068800000680793FFF788FF12A905463068FFF7F5
:1068900083FF4FF0040A07460DF1140BAF42059B2E
:1068A00003D3C9F80030129BE2E7EC1BB4FA84F47E
:1068B00095FAA5F2B2FA82F2C4F11F04944228BFFD
:1068C0001446A2000092CDE901BA002241463046AA
:1068D000FFF789FE059B0028CDD1012B03D9326833
:1068E000126A934202D9044858F034FE012303FA95
:1068F00004F42D1BD2E700BF2AF80A0010B50C21C2
:10690000044679F01BFD204610BD10B53421044625
:1069100079F014FD204610BD024B0348198876F02B
:1069200000BC00BFDE2D0120DC600120024B0348CB
:10693000198876F0F6BB00BFDE2D0120DC60012057
:1069400070B505460C464CB1E1682846FFF7F8FFE4
:10695000A668204677F02EFF3446F4E770BD70B588
:1069600005460C464CB1E1682846FFF7F8FFA668DB
:10697000204677F01FFF3446F4E770BD70B505463A
:106980000C464CB1E1682846FFF7F8FFA6682046A0
:1069900077F010FF3446F4E770BD70B505460C463D
:1069A0004CB1E1682846FFF7F8FFA668204677F06B
:1069B00001FF3446F4E770BD10B50446006808B125
:1069C00077F0F8FE204610BD11B1083077F058BDC1
:1069D000704713B50A4C2068403057F003FF206819
:1069E000002109F021F8074B01221A7000230193BE
:1069F000054B01A9186878F0FFF802B010BD00BF80
:106A0000C037012048370120D4520020E1E7E0E7F9
:106A100010B5044675F004F9204610BD10B50468A1
:106A200044B1201D75F0FCF820461421BDE810404B
:106A300079F084BC10BD2DE9F041044616460D46A0
:106A400000F104082B1B402B56DD9F10CEB9BE1E53
:106A5000761054F826303A46314620461BF02AFF7D
:106A60000EB1013EF5E72B1B042B45DD55F8043D27
:106A700022682A602A1B9210002120461BF01AFF70
:106A8000F1E7DB10676854F8230055F8041C22680E
:106A9000874206F1FF360BD2884203D2206044F8C9
:106AA000232009E08F4205D2216045F8042C03E041
:106AB0008F4219D2C4E9007247462B463A46D4F8B1
:106AC00000E052F8040B704514D3191F0B4651F81F
:106AD00004C9E645FAD3BB4209D8294632463846AE
:106AE000FFF7A9FF3D46ADE78842D7D2DCE742F881
:106AF00004CC18601746E1E7BDE8F08107B50068EF
:106B00000B680168019301EB0311C3680BB97FF0B7
:106B10007CFC036901AA0430984703B05DF804FBCC
:106B2000ECE707B500680B680168019301EB0311FE
:106B3000C3680BB97FF069FC036901AA0430984768
:106B400003B05DF804FB07B500680B6802680193A9
:106B50000C2101FB0321C3680BB97FF056FC0369CC
:106B600001AA0430984703B05DF804FBEBE707B5D2
:106B700000680B68026801930C2101FB0321C368C4
:106B80000BB97FF042FC036901AA0430984703B0B7
:106B90005DF804FBEBE7EAE7E9E7034607B59A6827
:106BA0000191013A08469A607FF056FA019803B0C5
:106BB0005DF804EB77F0FEBD10B50B4CE3689B6A03
:106BC00013B9A06A77F0E9FDE368DB6A13B9606B7B
:106BD00077F0E3FDE3681B6B23B9A06CBDE81040C0
:106BE00077F0DBBD10BD00BF084F0020F0B501F10C
:106BF000200C00254FF0000E51F8043B05F0010574
:106C00005E1B52F8043B6EEB4E07F41A67F1000569
:106C1000614540F8044BEFD105F00100F0BD08B527
:106C2000D0E900031B1A6FF00040834202D10748ED
:106C30007FF0C6FB012B1A4638BF01229B1804D2F5
:106C4000002BACBF18466FF0004008BD14F90A00D5
:106C500008B5D0E900031B1A9810094B43430948B3
:106C6000834202D108487FF0ABFB012B1A4638BFA4
:106C700001229A1802D2904228BF104608BD00BFD8
:106C8000ABAAAAAAAAAAAA0A14F90A00034610B42F
:106C90001B681C68084611462CB1A4469B685DF829
:106CA000044B0122604702205DF8044B704710B589
:106CB00048B1046954B184680123A047002818BF73
:106CC0006FF0020010BD6FF00A00FBE76FF00400E8
:106CD000F8E720B1024B800143F0010318477047E9
:106CE00010010B00A4DF7047A3DF7047B2DF7047CD
:106CF000B1DF7047B0DF704711DF70473DDF70478D
:106D00003CDF704763DF704762DF7047A8DF704782
:106D100086DF704785DF704781DF704746DF704749
:106D20008ADF70477ADF7047A0DF7047007D7047C9
:106D3000407C7047007D7047B5DF704790DF70473B
:106D40008FDF7047AEDF7047ADDF7047ACDF704755
:106D5000ABDF7047AADF704775DF704774DF70479D
:106D600010B50C468269A068FF2184F017FC4FF033
:106D7000FF33236010BD10B5836A2F4CE06093B1E0
:106D8000A362E368DA6ACAB16263E0682B49FFF77D
:106D9000E7FF4FF0FF332362E368586AC20614D05E
:106DA000274858F0D7FB406977F0D8FCA06200284C
:106DB000E7D1FFF701FF6FF00B003BE0986977F038
:106DC000CDFC60630028E0D1F3E708B91D48E8E78F
:106DD0001B6B53B1A364E268D2E90503B3FBF0F186
:106DE00000FB113141B11848DBE7C00877F0B6FC71
:106DF000A0640028EFD1DCE7D269B2FBF3F003FB1B
:106E0000102008B11148CCE74FF0FF31A2F1080380
:106E1000B1FBF3F30B44B3FA83F3C3F12003B2EBFA
:106E2000830F01D20A48BCE7C4E90411C4E9060093
:106E3000A4F84C0010BD00BF084F0020344F0020C4
:106E40002EF90A004CF90A0064F90A0093F90A00C5
:106E5000C3F90A00F7B50C4609684B1C06461746ED
:106E600021D00068836900938568D4E90123A8478D
:106E7000054620B937B930682146FFF771FF28462B
:106E800003B0F0BD33689B690193A3680093394652
:106E9000D4E900233046FFF71DFC002805DBEAD1CA
:106EA0006FF03305EBE70025E9E70546E7E72DE955
:106EB000F04F984603681B6A85B04345DDE90E59DB
:106EC000109C06460F4692462BD8354858F042FB98
:106ED0003B6843452BD17868A84228D8326892692C
:106EE00000EB020BAB4522D9ABEB050BBB68A3450E
:106EF00028BFA346281A5A464946184484F026FB60
:106F000033689A695D44B5FBF2F302FB1353D9442D
:106F1000A4EB0B042BB9524639463046FFF79AFFD3
:106F200010B9002CD4D1204605B0BDE8F08F013354
:106F300001D01C48CAE730688269B5FBF2F302FB56
:106F4000135343BBA24226D8B4FBF2F302FB134B0C
:106F5000A4EB0B030093039383682A461C46414627
:106F60004B46A0470028DFD1BAF1000F04D1039BA4
:106F70005C4699441D44D4E7039B4246CDE9009307
:106F800051462B463046FFF7A5FB0028CCDBEED15F
:106F90006FF03300C8E7EB1AC7F800807B60C0E7EA
:106FA0000CF80A000FFA0A001FB5069C0092CDE902
:106FB000013400220B4600F11401FFF714FB04B06A
:106FC00010BD2DE9F04F8DB05368D2F800A0CDF878
:106FD00018A0002607460C4603930793B04608AD59
:106FE0004FF0100B06AB002253F82690CDF800B0FE
:106FF0002B4649463846FFF7D7FFB0B110F1340FA2
:107000000ED186B1B8F1000F4CD1039B26480093F6
:107010002649534640F2ED1275F04CF86FF03300FC
:107020000DB0BDE8F08F0126DCE7B8F1000F04D009
:10703000E269089B9B1A002BE3DB099B23F00043CA
:10704000132BDED93A68D2699342DAD84FF0FF3376
:1070500005A81022294605934EF078FC099B05A847
:1070600023F000430090103B102249463846FFF7BA
:1070700059FB0028C2D1059B002BC2D10CAA86F077
:10708000010302EB830304F11C0C53F8183CC4F811
:107090000490C4E9023B95E80F004FF001088CE82A
:1070A0000F00AEE70020BBE758FA0A002BFA0A00EF
:1070B00030B599B0FFF75FFE054608BB274C02903C
:1070C000E36820641B6A6364C4E90E00012302AA1A
:1070D0000DA904F10C000393FFF773FF054690B16F
:1070E00010F1340F0AD1012300931D491D480023DC
:1070F0004FF40B6274F0DEFF6FF03305FFF75CFDB9
:10710000284619B030BD202300930E9905AB1022FC
:1071100004F10C00FFF748FF05460028EED1069B5E
:1071200023611149079B636108220BA884F000FAD0
:1071300005460028D7D10A9A130C012B02D191B22F
:107140000129DDD992B200920849064840F6B902F9
:1071500074F0B0FF6FF01505D0E700BF084F0020B6
:107160005EFA0A0058FA0A0089FA0A0092FA0A003E
:107170002DE9F04F4FF0010895B005460F46C14686
:107180004FF0000A2B6BD5E90D219A420FD1EA6A24
:107190001344002938D16649664840F2391274F028
:1071A00089FF6FF01B04204615B0BDE8F08F013950
:1071B000501CA9635409E96B686351F8244002F03C
:1071C0001F0008FA00F02042DDD1EB6A1A442B6858
:1071D000186AB2FBF0F300FB13223A602F6B012612
:1071E0006B6BBB4208D05A0903F01F0451F8220010
:1071F00006FA04F4204001D10024D4E701336B6384
:10720000AB6B013BAB63EBE72868046AB3FBF4F2BA
:1072100004FB1233426A8A4294BF2A632963E86BF3
:10722000EB62C5F834A0D208002184F0B7F9281D1C
:10723000FFF779F80028A5D1CDE90309039928467D
:10724000FFF73EF804460028ADD104992846FFF721
:1072500037F804460028A6D103AA09A92846FFF753
:10726000B0FE044600289ED10C26119B0C9A23F0F8
:10727000004302F10C01043B994225D9129B039370
:1072800003A8139B0493FFF74EF80028D6D0EE68AE
:1072900005F1140B002E3FF475AFF369DA0336D411
:1072A000F3699B030ED5336A63B1CDE9003506F16E
:1072B0002C02736A59462846FFF78BFA04460028C9
:1072C0007FF471AF3668E5E70A99009606AB284669
:1072D000FFF76AFE044600287FF465AF05A8FFF7B4
:1072E0000AF80C9B18449DF818300C9003F07003BA
:1072F000102BBAD1089B002BB6D0CDE90035224621
:10730000079B05F114012846FFF763FAA9E77369A3
:10731000002BC5D0CDE9003506F12C023369594662
:107320002846FFF756FA04460028B9D03BE700BFCD
:10733000B7FA0A00DCFA0A002DE9F04F044687B0DC
:107340000E46736A2B492C4840F2865274F0B2FE06
:1073500005A92046FFF70CFF054648B920680599A6
:10736000C3689847054600283BD010F1340FE8D099
:10737000284607B0BDE8F08F0DF11307CDE900876F
:10738000736ACDF808A05A4649462046FFF72BF904
:1073900070B9CDE9017A059BCDF800804A4604F129
:1073A00020012046FFF783FD20B110F1340FC8D033
:1073B0000546DDE708F10108B36A4345DCD82368D8
:1073C000A16A9A69706B84F0C1F8236AF362636AF8
:1073D0003363206804F12001FFF7C2FC059B736250
:1073E000C6E7804604F1140906F12C0B4FF0010AA0
:1073F000E2E700BFE1FA0A0001FB0A002DE9F04FC5
:107400008DB016460593CB6903F00302012A0546A9
:107410000C4600F037815F0317D4E7693A051DD4A5
:10742000D4F82080059B18EB030F00F12E8117F490
:10743000003719D0DDF81490E369B9F1000F25D1B8
:1074400023F40023059AE36104E000F029F90246E1
:107450000028E2D010460DB0BDE8F08F6269216AC5
:107460008A4288BF2262DBE763699845E2D92362DA
:107470000BAA0123214628468DF82C70FFF7BEFF8A
:10748000021EE7DB236A9845F2D8D3E79B0304F199
:107490002C081DD52B68A26ADB699A4251D12B6852
:1074A0001B6AAB63D4E90832CDE9092305F1140A5C
:1074B0000BA92846FFF75CFE0246E0B90B990129AB
:1074C00003D92868036A99421FD9714858F042F8D5
:1074D000236A002BE3D004F128020292013B04F15D
:1074E0002402019200934146D4E904232846FFF781
:1074F000B2F9024620B1E36943F40023E361A9E74E
:1075000028684146FFF72CFCC9E7C3689847024644
:1075100068B112F1340FEED10B9B5E495E4840F228
:10752000DC4274F0C7FD4FF0FF332B62C0E70A9BCB
:1075300028683BBB0B9A6262A362E36943F40033A1
:10754000E361AA465AF8143BDF69A36AFF1A4F4564
:1075500028BF4F46A36A00935246CDE90167636A8C
:1075600041462846FFF7A3FC024600287DD010F1D3
:10757000340FC0D121462846FFF7DEFE0246002820
:10758000E8D0B8E7013B0AA906920A93FFF704F98D
:1075900029680A9BC969069A01338B420A9345D12F
:1075A000013090FAA0F3B3FA83F3069303F1010BD1
:1075B0001746BB0007930423029309AB0193BB005A
:1075C000009352460B9B41462846FFF770FC02464B
:1075D00000289ED1069BBB422CD1099B012B38D899
:1075E0002E4873E70123CDE901730022099BCDF8F2
:1075F00000B051462846FEF7F6FF024600287FF409
:107600007AAF0123CDE9017352460B9BCDF800B050
:1076100041462846FFF74BFC024600287FF479AF2D
:107620000BF1010B0A9B9B45DCD383E793460DF1DD
:107630002307F7E70423029309AB0193079B009309
:107640005146099B2846FEF7CEFF02460028C4D0CB
:1076500051E72A68126A9342C2D80137BB45A8D8BD
:107660000B9B63624FEA8B0366E7236A3B4423620A
:10767000A36A3B44A3622B681B6AAB633E44A9EB3D
:107680000709D9E66FF00802E4E66FF01A02E1E6B6
:1076900007FB0A00E1FA0A0001FB0A002AF80A00C7
:1076A000CB695A032DE9F04144BF23F48023CB6119
:1076B000CB6948BF4FF0FF32054648BFCA6213F49A
:1076C000003090B00C462CD00F6A2C22002102A86A
:1076D00005F1140683F062FF2369069396E807001C
:1076E000636907930123CDE9093710AB03E907006C
:1076F0004FF0FF336B619846226A63699A4213D355
:1077000004F12C08324641462846FFF7A3FB28B374
:1077100010F1340F05D121462846FFF70DFE002851
:10772000F0D010B0BDE8F08101230DF1070202A9ED
:10773000284600F01FF80028F3DB01230DF10702B3
:1077400021462846FFF75AFE0028EADB6B69013321
:107750001CBFCDF83480C5F81480CDE7636A23617F
:10776000236A6361E36923F4003343F48033C4E99B
:107770000737D6E72DE9F04F1D46CB69904603F059
:107780000302022A87B007460C4654D09A0305D458
:10779000266A6269964208D3002003E0FFF780FF63
:1077A0000028F5D007B0BDE8F08F961BAE4228BF89
:1077B0002E46B14604F12C0104F1280A04F1240BF1
:1077C000B9F1000F01D13046ECE7E3695B0304D562
:1077D0003B68A26ADB699A4210D1236A0093CDE923
:1077E00001BAD4E9042338460591FFF734F800289C
:1077F000D8D1E369059943F48023E3613A68A36A29
:10780000D5690093ED1A4D4528BF4D46CDE9018558
:10781000636A059100223846FEF7E5FE0028C1D1D3
:10782000236A05992B442362A36A2B44A362A844CC
:10783000A9EB0509C4E76FF00800B3E773B50C4680
:1078400004310646FFF794FC0546F0B904F108013F
:107850003046FFF78DFC0546B8B904230093024675
:10786000616804F11C033046FFF79EFB10B110F174
:10787000340F0DD1E3690133E36114224FF0FF337C
:10788000C4E90823A3621023E360284602B070BD58
:107890000546FAE7F7B5044604300E461546FEF7EE
:1078A00042FD10B1002003B0F0BD009001236A46F4
:1078B000294620460193FFF784FB0028F3D105F108
:1078C00024073846FEF72FFD0028EBD13146384615
:1078D000FEF718FD38B13A4629462046FFF771FBFE
:1078E0000028EED0DFE70120DDE72DE9F341064671
:1078F0000C46154601F124081027226AE16822F09F
:10790000004301F10C00043B984217D80C2300936C
:107910000A462B1D61683046FFF746FB014690B9C9
:10792000E6682E602846FEF7E6FC3044E060284614
:10793000FEF7E1FCA3691844A06104E0002A06DB1D
:1079400029606FF00101084602B0BDE8F0812146D0
:1079500042463046FFF735FB01460028F3D1A369C4
:10796000E7601433A361C8E72DE9F84314461D46C8
:1079700000220123C4E9092306460F4604F1240826
:1079800005F108094046FEF7CEFC08B100200DE0E5
:10799000424621463046FFF714FB38B92A462146B5
:1079A0003046FFF7A2FF18B1831CEBD0BDE8F88387
:1079B0002B7903F07003202BF0D139464846FEF7AF
:1079C000A1FC0028EAD10120F0E770B5054692B08D
:1079D00004300E46FEF7A7FC68BB0190012301AA04
:1079E00007A928460293FFF7ECFA044618B910A835
:1079F000FEF799FC10B1204612B070BD10AA07A97D
:107A00002846FFF7DEFA38B903AA07A92846FFF788
:107A10006CFF18B1831CEAD00446ECE79DF91030E6
:107A2000002BF1DB0822314605A883F081FD0028F8
:107A3000EAD10124DFE70024DDE72DE9F047012446
:107A4000071D80F84040A8B005463846FEF76BFC9D
:107A50000646002840F0AF8001462C2207A883F09C
:107A60009DFDDFF86491DFF85881DFF860A14FF0E9
:107A700000432822314612A80F9383F08FFD1C94F7
:107A80002B681B6A9E4202D36FF0330427E01BA8C9
:107A9000FEF749FC002840F08E801BAA12A9284658
:107AA000FFF78FFA0446D0B90F9B002B57DB3846FF
:107AB000FEF739FCB8B1119B00934049109B404838
:107AC00040F6CE1274F0F6FA1B9B10931C9B119398
:107AD00000231A4607A9284600F07AF804462046F3
:107AE00028B0BDE8F08703AB1DAA10A92846FFF710
:107AF0003BFF041EF3DBDDE91010DCD0DDE90532CD
:107B0000994201D182422AD0834201D1914226D0AA
:107B100000922C492A4840F6DE1274F0CBFA059BFD
:107B20001093069BD3E79DF97830002B17DA1FA935
:107B30002846FFF74AFF041ED1DBDDE91F32009221
:107B400026D040F601225146404674F0B3FA1DAAF1
:107B500012A9284600F0B8F904460028BFD11DAA92
:107B600012A92846FFF7C1FE04460028DBD0831C7B
:107B7000B5D10DF1480CBCE80F0007AC0FC4BCE850
:107B80000F000FC49CE80700013684E8070077E780
:107B90004946404640F6082274F08CFA9DF8783049
:107BA00003F07F038DF878301DAA234612A92846DA
:107BB00000F06BFAD0E7002491E700BF36FB0A0023
:107BC00001FB0A005AFB0A00A0FB0A007EFB0A0028
:107BD0002DE9F04F2DED028B9BB00D460793CB693D
:107BE00005920133CB610B1DD1E901140646C5E9AD
:107BF0000141079808EE103A02EB001713469F4226
:107C00000FD1CDE909410023069330686968C36844
:107C10009847044668B114F1340F00F009812046FA
:107C200022E1D8682A6A02445868121A2A6210337C
:107C3000E5E705F11C080DF12C094FF0FF33102288
:107C40004146484606F1200A10270B934DF07EFE70
:107C500000942246CDE901876B6851463046FFF714
:107C600026F904460028D6D108EE909A8346B846F5
:107C70002AE0079B9B4580F2B680059A4FEA0B13DA
:107C800002EB0B19D358434540F0AD80D9E90212FD
:107C900018EE900A4DF05AFED9F80C300293D9F83C
:107CA00008300022CDE9007351466B683046FFF77B
:107CB000FEF804460028AED1D9F804309844D9F82B
:107CC0000C300BF1010B1F442B6A23F00043043BE3
:107CD000BB42CED804230DF12C080293CDE90078E5
:107CE0006B68002251463046FFF7E1F80446002851
:107CF00091D14FF0FF370246776151463046FFF78A
:107D0000A9F80446002886D13068036998470446DC
:107D1000002880D12B6A0F9723F000430FAF024653
:107D200069680097043B3046FEF7FCFC04460028D7
:107D30007FF475AF0F9A0B9B9A4279D1069B002B6B
:107D400041D0AB6802936B6801930A9B584800933B
:107D50005849099B40F27F2206F1040974F0AAF900
:107D60004846FEF7E0FA002840F08E8043463A4647
:107D700009A93046FFF7F8FD002875DB00F0848084
:107D80006B680D93AB680E9342460023394630462C
:107D900000F07BF9002867D1494609A8FEF7B2FA3E
:107DA00060B9AB68009344496B68414840F6911252
:107DB00074F080F96B687360AB68B3603046FFF7AE
:107DC0003CFE002850D13469002C3FF428AF18EE57
:107DD000101A201DFEF796FA18B96B686360AB683D
:107DE000A3602468F0E7012300930A990FAB424691
:107DF0003046FFF7D9F8044600287FF410AF18EE9C
:107E0000900A01220FA94DF0A1FD012302930FABAF
:107E1000CDE9007322466B6851463046FFF747F8BC
:107E2000044600287FF4F7AE08F1010801374BE75C
:107E30006B6822491E4840F2692274F03BF94FF00A
:107E4000FF333362002201230FA909A8CDE90F23D4
:107E5000FEF758FA68B91A48099B1A4940F271228C
:107E600074F028F96FF033001BB0BDEC028BBDE855
:107E7000F08F18EE101A3046FFF77AF901230693B7
:107E800000283FF4C2AEEFE73A4609A93046FFF7B3
:107E900001FD0028E8DB96D06B681893AB68199356
:107EA00000231A4639463046FFF792FE89E700BFA5
:107EB00001FB0A00FDFB0A002AFC0A00E1FA0A00A5
:107EC000DCFA0A00CAFB0A002DE9F04780468CB0B4
:107ED00010460C461646FEF70EFA0B6A143023F0D5
:107EE000004383421DD101AA04314046FFF7D2FC72
:107EF000051E12DB099A002A13DA236A63F0004395
:107F000013400993636A0A93A36A0B9300231A46EA
:107F100001A94046FFF75CFE054628460CB0BDE8C7
:107F2000F087336801933046FEF7E5F90023CDE989
:107F300003330290012301AA21464046FFF748FE81
:107F400005460028E9D1D8F80C70211D4FF0FF3A02
:107F5000CFB9D8F81070211D002FDED0381DFEF7E4
:107F6000D1F970B9FC6833689C420AD93046FEF7F3
:107F7000C2F9201AF8603046FEF7BDF9BB69181A3D
:107F8000B8613F68E8E7381DFEF7BCF930B9D7F8AB
:107F90000C903368994503D1C7E901AA3F68D7E738
:107FA000FCD93046FEF7A7F9A9EB0000F860F5E729
:107FB0002DE9F043074695B00E469046994601F1EB
:107FC00024044046316AFEF796F93B68DB690844B1
:107FD000984218D84346043943F8041B0022CDE9DF
:107FE0000A230C23CDE90C3198F807300991CDE92B
:107FF0000E29109309AA022331463846FFF7E8FDFF
:1080000015B0BDE8F083002937DB35460FCD09AC4C
:108010000FC40FCD0FC495E8070084E80700314670
:108020003846FFF70BFC0028EAD1129B7362139BC2
:10803000B362336A4246043B42F8043B03920C228B
:10804000CDE90130CDE9042398F807300893CDE954
:108050000609022301AA31463846FFF7B9FD002878
:10806000CED1119B43F00043119373681293B36810
:1080700013930246034609A9BFE722463146384614
:10808000FEF79FFF00289CD0BAE770B5154688B070
:1080900055F8044BD27900940C26002BCDE905232A
:1080A0000792344414BF022301236A46CDE90165D7
:1080B00003960494FFF78CFD08B070BD70B592B0C4
:1080C00006460D46FFF7ECFA0446002835D1EB6969
:1080D00003F41023B3F5803F2FD12A1D1046FEF77D
:1080E00022F950BB07A93046FEF76BFF044620BBC0
:1080F0000C23CDE90400EA680690009308990392E6
:1081000004AB3046FEF750FF0446B0B99DF810307E
:10811000112B02D00A4857F01DFA2B6905936B69A1
:10812000069303AA034607A93046FFF7AEFF0446AD
:1081300018B9EB6923F48033EB61204612B070BDAF
:1081400051FC0A002DE9F04F2DED028B85B01F6820
:10815000029340F6220353604368936008EE101ABE
:108160008368DFF83C91D36005461446494638469B
:1081700087F097FA07EB000883464946404687F0A8
:1081800028FA0128064608EB000A05D117F80B303B
:108190002E2B0AD15746E9E7022806D102463F496D
:1081A000404683F0C5F90028F4D057464FF0010B44
:1081B0004946504687F075FA82444946504687F052
:1081C00008FA024690B102280CD103903349504678
:1081D00083F0AEF9039A28B9BBF1010B04D10AF17F
:1081E0000207C3E70BF1010B9244E1E798F80000A6
:1081F000002845D0029BC3F800802379222B49D167
:1082000004F1080A18EE101A52462846FEF7D9FE65
:10821000B0BB05F1140B18EE101A22462846FFF7E2
:1082200064FB68BB237903F07F03112B01D0222B61
:10823000F1D1E379B342EED1236862790433134478
:10824000A279CDE90086134418EE102A59465268E7
:108250002846FEF73FFA002812DBDCD095F84130C3
:10826000002B83D194F90430002BBFF67FAF514629
:108270002846FFF7AAFB002807D001DB6FF00100BA
:1082800005B0BDEC028BBDE8F08F237903F07F03CE
:1082900023716BE76FF01300F2E700BFFB990B004F
:1082A00088340B0030B52D4D9DB095F84C300190C1
:1082B000002B43D001AB2A4802AA06A9FFF742FFD0
:1082C000831C044644D101982F2184F0F2FB00283E
:1082D0003BD1EB6822481B6A6B6411A9FFF7AEFA29
:1082E0000446002831D10F9B1A93109B1B93024622
:1082F000034611A91A48FFF76BFC044628BB40F659
:108300002203ADF80C30019B8DF80E001846009347
:1083100084F003FC1299139A8DF80F00CDE90F1227
:1083200004910592009B0E4802AA06A9FFF740FEA1
:10833000044650B9EB681B6A6B6406E005F10C005B
:10834000FFF77BFB04460028B4D020461DB030BDAB
:10835000002808BF6FF01004F7E700BF084F0020A7
:10836000144F002070B594B01546039103AB05AAD5
:1083700009A90646FFF7E6FE0446B8B901464C22B5
:10838000284683F00BF99DF818302B70112B04BF91
:10839000089B6B60311D07A8FDF7B4FF05F10803CA
:1083A000044630B90B49184684F09AFB204614B0B5
:1083B00070BD059A9DF819109DF81B0000900432BD
:1083C0000A449DF81A1030460A440A99FEF7ECFD5B
:1083D0000446EBE788340B0000231A46194676F072
:1083E00043BB4FF0FF3176F0ABBC30B5294C0546AE
:1083F0009DB0206DFFF7F5FF94F84C3001952546B0
:108400007BB1254801AB02AA06A9FFF79BFE0446F3
:1084100078B1286DFFF7E0FFB4FA84F040091DB091
:1084200030BD04F10C00FFF708FB04460028E8D03B
:10843000EFE79DF80C30222B16D0174802AA06A9A8
:10844000FFF742FD04460028E3D19DF80C30222BB3
:10845000DFD1114806AA12A9FFF71CFA041ED8DBC7
:108460000BD10E4857F076F80B4804AA11A9FEF775
:10847000A8FD04460028E0D0CBE71A9B0F931B9B76
:108480001093002304481A4606A9FFF7A1FB0446EF
:10849000BFE700BF084F0020144F00206EFC0A0009
:1084A00012DF704730B5044685B00A200D4676F0DD
:1084B0003AF90A4B009303210023CDE901130393FA
:1084C000207923686A4645F0CBF900B220B92946E5
:1084D000684647F04AFE00B205B030BD9C1301204B
:1084E00030B5044685B001200D4676F01CF90A4BE4
:1084F000009303210023CDE901130393207923681E
:108500006A4645F0ADF900B220B92946684647F001
:108510002CFE00B205B030BD5024012038B5437A9E
:1085200004460D460BB94EF05EFE20460322802124
:108530004EF0F2FDE27A20462A4381214EF0ECFD16
:1085400025732046BDE838404EF0FDBD38B5437A6E
:1085500004460D460BB94EF046FE2046032280210C
:108560004EF0DAFD227B20462A4381214EF0D4FDD5
:10857000E5722046BDE838404EF0E5BD38B51546F9
:108580001A4650B1C368AB420AD344682B46A04791
:10859000002818BF6FF0020038BD6FF00A00FBE73B
:1085A0006FF00400F8E710B40446084611461A4676
:1085B00023685C6824B1A4469B685DF8044B60475F
:1085C00002205DF8044B704713B5044600214AF0C1
:1085D000B4F8012301AA06212046FFF7E4FF50B9B1
:1085E0009DF8043001AA60F34513062120468DF85A
:1085F0000430FEF74BFB02B010BD37B504460D4604
:1086000000214AF09AF8012301AA06212046FFF72B
:10861000CAFF50B99DF8043001AA65F386130621FC
:1086200020468DF80430FEF731FB03B030BD38B57D
:10863000437C04460D4673B1204646F0DDF8227AAD
:10864000657220462A43A12146F07AF82046BDE80B
:10865000384046F086B8034946F096F80028EBD13A
:1086600038BD00BFA040012038B5437C04460D460C
:1086700073B1204646F0C0F8627A257220462A433C
:10868000A12146F05DF82046BDE8384046F069B8C3
:10869000024946F079F80028EBD138BDA04001200E
:1086A0001FB504688DF80C10ACB103230021CDE98F
:1086B000003103AB01221946204606F0ACFA9DF8C2
:1086C0000D309DF80C001B0243EA00439DF80E009C
:1086D000184304B010BD0323FF22CDE9003203ABE1
:1086E0000122194640684BF0BBFEE8E71FB504685D
:1086F0008DF80C108CB102230021CDE9003103ABC1
:1087000001221946204606F086FA9DF80C009DF8D5
:108710000D3043EA002004B010BD0223FF22CDE952
:10872000003203AB0122194640684BF099FEECE79A
:1087300008B5FFF7DBFF40BA80B208BD1FB504687B
:108740008DF80C1064B100230122CDE9002303ABA6
:108750001946204606F05FFA9DF80C0004B010BDE3
:108760000122FF23CDE9002303AB194640684BF0FB
:1087700077FEF1E71FB504688DF80D2064B1002382
:10878000CDE900338DF80C100123022203A9204605
:1087900006F011FA04B010BD01F07F0100948DF8CD
:1087A0000C102346022203A940684BF07DFEF1E73E
:1087B0000078C0F3C20300F007029B0043EA4213B3
:1087C00043EA901070471FB544688DF80C10ACB1A7
:1087D00003230021CDE9003103AB012219462046D5
:1087E00006F019FA9DF80D309DF80C001B0243EAC3
:1087F00000439DF80E00184304B010BD0323FF2270
:10880000CDE9003203AB0122194680684BF028FE07
:10881000E8E71FB544688DF80C109CB102230021D5
:10882000CDE9003103AB01221946204606F0F3F9E9
:108830009DF80C309DF80D0040EA032040BA80B24C
:1088400004B010BD0223FF22CDE9003203AB0122A8
:10885000194680684BF004FEEAE71FB544688DF8BE
:108860000C1064B100230122CDE9002303AB1946AB
:10887000204606F0D0F99DF80C0004B010BD01228E
:10888000FF23CDE9002303AB194680684BF0E8FDD8
:10889000F1E71FB544688DF80D2064B10023CDE9E0
:1088A00000338DF80C100123022203A9204606F0A4
:1088B00082F904B010BD01F07F0100948DF80C1016
:1088C0002346022203A980684BF0EEFDF1E783699D
:1088D00003B11847184670470378642223F0020357
:1088E00003704068B0FBF2F0B0FBF2F302FB130040
:1088F000C0B27047037C0BB9037070478368436054
:108900000378C16043F003030370002303747047CE
:10891000037819B143F004030370704703F0FB03BD
:10892000FAE770474BDF704733DF704732DF70473D
:10893000BFF34F8F0549064BCA6802F4E062134348
:10894000CB60BFF34F8F00BFFDE700BF00ED00E03D
:108950000400FA0508B175F02DBF704710B5044644
:1089600017F0D2FC08B12388838110BD425C01441A
:10897000487840EA022070470B4B10B51C6812F093
:10898000EFFA236801461B6820469847044640B129
:108990001BF0AEFA28B194F82D3013B104F12D007C
:1089A00010BD0248FCE700BFC491002072FC0A0021
:1089B000034B1A79062A0CBF93F8980000207047E1
:1089C000908E0020064B187900F0FB03022B04D098
:1089D000A0F10B035842584170470120704700BF77
:1089E000908E0020094B10B51C6864B1606812F0CD
:1089F00099FA38B194F8640194F86E3198422CBF1A
:108A00000020012010BD2046FCE700BF1CF0002024
:108A100010B5044600687DF08BFB2060204610BD39
:108A200038B5044608200D4677F082FC2B68436079
:108A300023680360206038BD70B505460C464CB114
:108A4000E1682846FFF7F8FFA668204675F0B2FEF9
:108A50003446F4E770BD10B5044600687DF042FB73
:108A60002060204610BD836810B504462BB1032258
:108A7000014698470023C4E90233204610BD8B68A5
:108A800073B5164604460D1D01225BB130681A69A4
:108A9000904234BF9868D8681D4634BF0122002236
:108AA0000346F2E7019552B1CA68AA4204D1C4E96B
:108AB0000035204602B070BD01A8FFF7A9FF019A5A
:108AC0003368116999424FF00003F0D3C4E90023E1
:108AD000EFE738B504460068844204D0056875F0B5
:108AE00069FE2846F8E738BD70B5046805460E46AD
:108AF000AC4207D0A068036831469B68984710B91C
:108B00002468F5E7002070BD38B504460C200D46FA
:108B100077F00EFC2B68836021467DF096FAA368FF
:108B20000133A36038BD38B504460C200D4677F0FC
:108B3000FFFB2B68836021467DF087FAA368013331
:108B4000A36038BDF8B50D460168044606468C4260
:108B50000FD08A682B680F689A4208D101F1080388
:108B60009D4203D02046FEF718F800E00E46394635
:108B7000EDE7B44205D031462046BDE8F840FEF7A7
:108B80000CB8F8BD10B50446FFF7A3FF0023C4E9F5
:108B90000044A36010BD70B5046805460E46AC42A3
:108BA00007D0A068036831469B68984710B92468CD
:108BB000F5E7002070BD08B5054B984201D97DF05E
:108BC000F9FB0C235843BDE8084077F0B1BB00BF68
:108BD000AAAAAA0A08B175F0EDBD70478B6873B5F3
:108BE000164604460D1D01225BB130881A8A904258
:108BF00034BF9868D8681D4634BF0122002203465E
:108C0000F2E7019552B1CA68AA4204D1C4E900351D
:108C1000204602B070BD01A8FFF7FAFE019A338822
:108C2000118A99424FF00003F0D3C4E90023EFE723
:108C30008B6873B5164604460D1D01225BB1308862
:108C40001A8A904234BF9868D8681D4634BF012202
:108C500000220346F2E7019552B1CA68AA4204D144
:108C6000C4E90035204602B070BD01A8FFF7D0FE70
:108C7000019A3388118A99424FF00003F0D3C4E976
:108C80000023EFE770B505460C464CB1E168284675
:108C9000FFF7F8FFA668204675F08CFD3446F4E730
:108CA00070BD10B50C4650B16BF0F6F938B1043018
:108CB00050E8003F234440E80032002AF8D110BDBC
:108CC00010B50138029C0F2800F28480DFE800F024
:108CD0005E8236281A1458084A6D7073797D804474
:108CE000DFED427A9FED427A002908BFF0EE477A25
:108CF000C2ED007A052261E0DFED3E7A9FED3E7A1B
:108D00000029F2E7DFED3B7A9FED3B7A002908BFAF
:108D1000F0EE477AC2ED007A05222270082242E086
:108D2000DFED347A9FED347A002908BFF0EE477A00
:108D3000C2ED007A05222270092234E0DFED2D7A9F
:108D40009FED2D7A002908BFF0EE477AC2ED007A38
:108D5000052222700A2226E0DFED247A9FED247A94
:108D60000029E2E7DFED217A9FED217A002908BF93
:108D7000F0EE477AC2ED007A082222700B2212E050
:108D8000DFED1E7A9FED1E7A0029F0E7DFED1B7AFA
:108D90009FED1B7A002908BFF0EE477AC2ED007AFA
:108DA000082222700C221A7010BD16491160C1E70A
:108DB00014491160CCE71449116006222270072281
:108DC000F1E7114911600622A7E71049116091E708
:108DD0000E49F7E7DFED077A9FED077A002908BF14
:108DE000F0EE477AC2ED007A0522C6E70020CB44B8
:108DF0000000FA4300204B4400007A430020CB439C
:108E00000000FA420000FA4200007A429A99794141
:108E10001FB50023039300238DF80B308DF80A3023
:108E20000DF10A03009303AA0DF10B03FFF748FFAE
:108E30009DED030A05B05DF804FBF8B50D46016829
:108E4000044606468C420FD08A682B680F689A4207
:108E500008D101F108039D4203D02046FDF79DFE95
:108E600000E00E463946EDE7B44205D031462046D3
:108E7000BDE8F840FDF791BEF8BD2DE9F047D0E917
:108E80000487436AD0E902A904463D1D1E1DAE4277
:108E900004D955F8040B75F08DFCF8E7C4E906A970
:108EA000C4E90887BDE8F0872DE9F047D0E90487D9
:108EB000436AD0E902A904463D1D1E1DAE4204D9F5
:108EC00055F8040B75F076FCF8E7C4E906A9C4E987
:108ED0000887BDE8F087036870B5044663B1436A4C
:108EE00045691E1DAE4204D955F8040B75F062FCAD
:108EF000F8E7206875F05EFC204670BD036870B529
:108F0000044663B1436A45691E1DAE4204D955F853
:108F1000040B75F04FFCF8E7206875F04BFC204619
:108F200070BD70B505460C464CB1E1682846FFF7A8
:108F3000F8FFA668204675F03DFC3446F4E770BDA6
:108F4000B0F1005F08B501D37DF034FABDE8084008
:108F5000800077F0EDB908B175F02CBC704703467E
:108F6000BFF35B8F53E8000F421C43E80021002948
:108F7000F8D1BFF35B8F7047026962B1836850F824
:108F80002310013303F0010348BF5B42013A8360C1
:108F90000261084670471146FBE7826A10B582B14C
:108FA000036A50F823400133594201F0070103F0EE
:108FB000070302F1FF3258BF4B4203628262204630
:108FC00010BD1446FBE7026962B1836850F82310B4
:108FD000013303F0010348BF5B42013A8360026141
:108FE000084670471146FBE7826C10B582B1036CEE
:108FF00050F823400133594201F00F0103F00F03F1
:1090000002F1FF3258BF4B4203648264204610BD18
:109010001446FBE70146014817F09CB90098002070
:10902000884270B505460E4625D00C1AA210B2FA39
:1090300082F2C2F11F025200FDF7FDFC402C14DD4C
:1090400005F140042146284619F012FC23469E42B1
:1090500011D019681A4652F8040C814202D242F823
:109060000409F8E711600433F1E731462846BDE80A
:10907000704019F0FDBB70BD8B6873B51646044691
:109080000D1D01225BB130681A69904234BF9868A7
:10909000D8681D4634BF012200220346F2E701953D
:1090A00052B1CA68AA4204D1C4E90035204602B0D0
:1090B00070BD01A8FFF7ACFC019A336811699942B1
:1090C0004FF00003F0D3C4E90023EFE78B6873B5DA
:1090D000164604460D1D01225BB130681A699042A4
:1090E00034BF9868D8681D4634BF01220022034669
:1090F000F2E7019552B1CA68AA4204D1C4E9003529
:10910000204602B070BD01A8FFF782FC019A3368C7
:10911000116999424FF00003F0D3C4E90023EFE74F
:109120008B6873B5164604460D1D01225BB130688D
:109130001A69904234BF9868D8681D4634BF01222E
:1091400000220346F2E7019552B1CA68AA4204D14F
:10915000C4E90035204602B070BD01A8FFF758FCF5
:10916000019A3368116999424FF00003F0D3C4E9C2
:109170000023EFE78B6873B5164604460D1D0122E8
:109180005BB130681A69904234BF9868D8681D4650
:1091900034BF012200220346F2E7019552B1CA68AA
:1091A000AA4204D1C4E90035204602B070BD01A82E
:1091B000FFF72EFC019A3368116999424FF00003C2
:1091C000F0D3C4E90023EFE72DE9F347CB68DFF8DC
:1091D000649001930E1D07460C4635464FF0FF384C
:1091E000DDF804A0564510D0DAF81010D9F8043094
:1091F000994206D0384611F007FC804584BF554699
:10920000804601A8FFF727FCEAE7AE4210D001A88C
:109210000195FFF720FC314628467CF0E7FF75F00A
:10922000C9FA6369013B6361012002B0BDE8F087C0
:109230000020FAE7708700202DE9F347CB68DFF8BC
:10924000649001930E1D07460C4635464FF0FF38DB
:10925000DDF804A0564510D0DAF81010D9F8043023
:10926000994206D0384611F0CFFB804584BF554661
:10927000804601A8FFF7EFFBEAE7AE4210D001A855
:109280000195FFF7E8FB314628467CF0AFFF75F00B
:1092900091FA6369013B6361012002B0BDE8F08788
:1092A0000020FAE7708700202DE9F347CB68DFF84C
:1092B000649001930E1D07460C4635464FF0FF386B
:1092C000DDF804A0564510D0DAF81010D9F80430B3
:1092D000994206D0384611F097FB804584BF554629
:1092E000804601A8FFF7B7FBEAE7AE4210D001A81D
:1092F0000195FFF7B0FB314628467CF077FF75F00B
:1093000059FA6369013B6361012002B0BDE8F0874F
:109310000020FAE7708700202DE9F347CB68DFF8DB
:10932000649001930E1D07460C4635464FF0FF38FA
:10933000DDF804A0564510D0DAF81010D9F8043042
:10934000994206D0384611F05FFB804584BF5546F0
:10935000804601A8FFF77FFBEAE7AE4210D001A8E4
:109360000195FFF778FB314628467CF03FFF75F00A
:1093700021FA6369013B6361012002B0BDE8F08717
:109380000020FAE77087002030B5031D8268184678
:109390003AB115690C68A5422ABF1046D268926896
:1093A000F6E7834204D009680269914238BF184643
:1093B00030BD30B5031D826818463AB115690C6896
:1093C000A5422ABF1046D2689268F6E7834204D0CD
:1093D00009680269914238BF184630BD30B5031D97
:1093E000826818463AB115690C68A5422ABF104632
:1093F000D2689268F6E7834204D009680269914214
:1094000038BF184630BD30B5031D826818463AB1E2
:1094100015690C68A5422ABF1046D2689268F6E723
:10942000834204D009680269914238BF184630BDB2
:1094300037B54B690192272B05460C460AD901A97D
:109440002046FFF7E0FF231D834203D12146284633
:10945000FFF762FF03B030BD10B581680446FDF729
:109460006FFA0023221DC4E90322A360636110BDCB
:1094700010B581680446FDF772FA0023221DC4E985
:109480000322A360636110BD10B581680446FDF737
:1094900075FA0023221DC4E90322A360636110BD95
:1094A00010B581680446FDF778FA0023221DC4E94F
:1094B0000322A360636110BD38B5056804462846E1
:1094C0007CF023FE2060284638BDF7B58368061D72
:1094D00004463546EBB11A690F68BA4204D2DA681D
:1094E0002B461D461346F5E79A68FAD8D86842B16C
:1094F00011698F428ABFD16891681A4613460A469D
:10950000F5E738B10269974236BF0546C068806802
:10951000F7E72B46E268676901939A4208D1AE42A9
:1095200006D12046FFF7BCFF6069381A03B0F0BDD2
:10953000019BAB42F8D001A8FFF7BEFF31467CF09B
:1095400055FE75F037F96369013B6361F0E708B1D7
:1095500075F030B9704770B505460C464CB1E168FE
:109560002846FFF7F8FFA668204675F023F9344631
:10957000F4E770BD42680B4604318A4210B50446D8
:1095800004D01846521A81F0EFFF03466268043A8D
:109590006260184610BD814210B51346A1EB00046D
:1095A00005D001462246184681F0DEFF0346181911
:1095B00010BD38B50346D3E90035ED1A6FF06043AE
:1095C000AC10A3EBA5058D42104601D27CF0F8FE4D
:1095D000A14238BF2146601803D2984228BF1846DE
:1095E00038BD1846FCE708B175F0E4B8704710B50F
:1095F00004460068FFF7F7FF204610BD70B5B0F8CD
:1096000068100446D4EDC36A90F80403B4F80A3332
:1096100088B011B199427AD80B460F2B7ADD42F20D
:109620001072824007EE902AB8EE677AF2EE047A62
:1096300066EEA76AA3F11002C7EE267A92B2FCEE9C
:10964000E77A17EE901A4A4303FB01139B1A03F5BE
:109650007A735B0801EBC1018B4238BF0B46D4F82B
:109660002C1301F57E75954204F52A703DD8521AE7
:109670007D25DB00A2F57A72B3FBF5F616F07F4F7D
:109680004FEAC202B2FBF5F53CD17C2B3AD915F07A
:109690007F433AD17C2A38D96FF07F42079340F25A
:1096A0007623CDE90423D4F8A8320221D3F8D030B0
:1096B000069104AA984718BB330C8DF80830330A7A
:1096C0008DF809302B0C8DF80B300123CDE90033D8
:1096D0006DBAD4F800038DF80A60062302AA94211B
:1096E000ADF80C5038F0B8FC0AE0D4F8A8320022EB
:1096F0000092DC6940F2762202236FF07F41A0479E
:1097000008B070BD6FF43170FAE70448F8E76FF005
:109710001100F5E700221346A1E700BF3CFDFFFF63
:1097200008281BD00A281CD010281DD015281ED0B0
:109730001F281FD02A2820D03E2821D0C82822D078
:10974000B0F5C87F22D0B0F5487F22D0B0F5C86F01
:1097500022D007EE900AB8EE670A70479FED100A14
:1097600070479FED100A70479FED0F0A70479FEDFD
:109770000F0A70479FED0E0A70479FED0E0A704763
:109780009FED0D0A70479FED0D0A70479FED0C0A83
:1097900070479FED0C0A70479FED0B0A704700BFA2
:1097A0009A99F940666626419A9979416666A6417A
:1097B0000000FA41CDCC264200007A4200204B4303
:1097C0000020CB4300204B440020CB4410B1036861
:1097D0005B681847704710B103681B6918477047EA
:1097E00010B50446006808B1FFF7F5FF204610BD2C
:1097F00010B103681B691847704710B103685B68B4
:1098000018477047036801600BB11846F5E77047C9
:1098100010B103685B681847704770B505460C4681
:109820004CB1E1682846FFF7F8FFA668204674F0BF
:10983000C1FF3446F4E770BD70B5046805460E46B6
:10984000AC4207D0A068036831469B68984710B9BE
:109850002468F5E7002070BD2DE9F84FD0E90087B6
:10986000A7EB0804A310234C5C43234B9C42064601
:109870008946934602D121487CF0A2FD012C224664
:1098800038BF0122A418A1EB080531D244B19C4293
:1098900028BF1C460C20604376F04AFD824600E05B
:1098A000A2469BE807000AEB0503002D83E80700AA
:1098B00004DD2A464146504681F056FEA7EB0907D3
:1098C0000C35002F554404DD3A464946284681F0C0
:1098D0003DFE3D44B8F1000F02D0404674F06AFFEF
:1098E0000C2000FB04A4C6E900A5B460BDE8F88F15
:1098F0001C46CFE7ABAAAAAAAAAAAA0A14F90A0088
:109900002DE9F84F064689469346FDF788F9D6E9D2
:1099100000A8071EA9EB0A0428D001DA7CF04AFD52
:1099200076F006FD05469BF800302B55002C04DD33
:1099300022465146284681F017FEA8EB090801345B
:10994000B8F1000F2C4404DD42464946204681F020
:10995000FDFD4444BAF1000F02D0504674F02AFFD6
:10996000C6E900543D44B560BDE8F88F3D46DAE7EE
:109970002DE9F041064688461546174604464445FB
:1099800009D0214638467CF094FF20467CF0A2FEA8
:1099900018341837F3E7A01BC4080448444324F0E4
:1099A0006044182000FB0450BDE8F081ABAAAA0A6D
:1099B00010B50C1A002C134605DD01462246184648
:1099C00081F0D2FD0346181910BDB0F1005F08B553
:1099D00001D37CF0EFFCBDE80840800076F0A8BC25
:1099E00008B174F0E7BE7047B1F1005FF8B5044606
:1099F0000E4602D310487CF0E3FC026883689B1A91
:109A0000B1EBA30F14D94768BF1A91B10846FFF70D
:109A1000DCFF05462A46D4E90001FFF7C9FF2068AC
:109A2000FFF7DEFF2F44256005EB86056760A56024
:109A3000F8BD0D46EEE700BF76FC0A0008B174F0F1
:109A4000B9BE70472DE9F843D0E901439C4207466F
:109A5000894607D00B6844F8043B446078680438B2
:109A6000BDE8F883D0F800806FF06042A4EB0804F2
:109A7000B2EBA40F4FEAA40302D116487CF0A0FC7D
:109A8000012B1D4638BF0125ED1821D23DB195426D
:109A900028BF1546A80076F04BFC064600E02E468F
:109AA000D9F800303351002C04DD224641463046BF
:109AB00081F05AFD04343444B8F1000F02D040461E
:109AC00074F078FE06EB8505C7E90064BD60C5E764
:109AD0001546DFE714F90A0038B50346D3E9003527
:109AE000ED1A6FF06043AC10A3EBA5058D42104654
:109AF00001D27CF065FCA14238BF2146601803D238
:109B0000984228BF184638BD1846FCE72DE9F84FA3
:109B100005460F4691460121134AFFF7DDFFD5E9BF
:109B2000008A0646A7EB080BD8B1FFF74EFF0446A4
:109B3000D9F8003044F80B30224639464046FFF74A
:109B400037FF5146021D3846FFF732FF07464046B1
:109B5000FFF746FFC5E9004704EB8604AC60BDE8AB
:109B6000F88F0446E4E700BF14F90A00D0E9003298
:109B7000934218BF4360704710B504460068FFF772
:109B80002FFF204610BD30B50D68836885B0D0E941
:109B9000004205604D68456003938D688560002331
:109BA000C1E900338B6001A8CDE90142FFF7E4FF72
:109BB00005B030BDD0E900239A4209D1C3681A1F0D
:109BC00053F8043C436003F5FC73C2608360036098
:109BD00003681C3B0360704713B50B460246D0E98F
:109BE00000016C4684E8030093E8030082E8030068
:109BF00094E8030083E80300986891689060996096
:109C0000D168D868D060D96002B010BD10B50378B3
:109C1000DB07044604D574F07BFDE368C01A10BD71
:109C20004FF0FF30FBE72DE9F0431546074687B0BC
:109C30001420894676F07CFB2B6807F1040819781C
:109C400001740023C845064600F110024374837472
:109C50004C460CD17B691BB13D692B7C8B4223D3D5
:109C6000394604A821F07DF9DDE9044518E099F8AA
:109C70001000019288422DD9FB68CDF80C904B451D
:109C800026D003A8FEF7C4FE0368019A197C337C32
:109C90009942E5D2039DEB68002B0CBF00244D4692
:109CA000002D37D0002C33D1454531D0307C2B7C72
:109CB00098422CBF0020012043462A4631467CF0C2
:109CC00039FA7B6901337B61304607B0BDE8F08328
:109CD0004D46E5E71ED23969CDF80C9049450DD0C7
:109CE00003A8FEF7B8FE0368317C1B7C019A9942F9
:109CF00007D2D9F80C300BB1039B1C4625461C46F5
:109D0000CEE7394604A821F02CF9DDE90434F5E763
:109D10000120D1E7304674F04DFD2046D5E710B55F
:109D200003463BB11C7C107884422ABF1946DB688D
:109D30009B68F6E7084610BDD0E9002310B5D31A9A
:109D4000114C9B1004FB0313002B18DB012B04DCCC
:109D5000CC2303FB0121016010BD5A10C16801EB47
:109D6000820451F82210C460A3EB4203CC2201F517
:109D7000CC7402FB0313416084600360ECE7DA43B8
:109D80006FEA5202EAE700BFFBFAFAFACA68C36850
:109D90009B1A9B105A1ED0E900301B1A05489B10D5
:109DA000434303EB42038A680968521A921000FB8E
:109DB00002307047FBFAFAFA036870B5044663B1E3
:109DC000436A45691E1DAE4204D955F8040B74F070
:109DD000F1FCF8E7206874F0EDFC204670BD0368E4
:109DE0008268CC339342036008D1C3681A1D5B6854
:109DF000C26003F5CC72436082600360704708B5AF
:109E0000064B074A1868074900F6147071F0B6FA55
:109E1000BDE808400E200CF03DBB00BFB43A012065
:109E200086FC0A009FFC0A0070B5046805460E46D1
:109E3000AC4207D0A068036831469B68984710B9C8
:109E40002468F5E7002070BD10B50B4904460B48A7
:109E5000FFF7EAFF68B123681D2B0BD8013323609D
:109E6000074B084A1868084900F6147071F086FA22
:109E7000012010BD0020FCE7FC410C00F82401206B
:109E8000B43A0120A5FC0A0001FB0A0070B5046881
:109E900005460E46AC4207D0A068036831469B6871
:109EA000984710B92468F5E7002070BD10B5D0E9D7
:109EB0000043144AE31A9B1002FB0312002A1BDB27
:109EC000112A04DC1C2303FB0141016010BD122395
:109ED00092FBF3F3C16801EB830451F82310C460D3
:109EE00001F5FC748460122404FB13231C2202FB82
:109EF000031341600360E9E7D3431221B3FBF1F39D
:109F0000DB43E7E7B76DDBB6CA68C3689B1AD0E9E5
:109F10000020121A07489B109210424310B5013BD3
:109F2000122404FB03238A680968521A921000FB6A
:109F3000023010BDB76DDBB62DE9F04704460F4681
:109F400000F108011830FFF7DFFF3C4B984202D1C7
:109F50003B487CF035FA626A20686368111AA3EB0B
:109F6000A101012925D86169A2EB01084FEAA806E1
:109F7000B51CB3EB450F3CD95D1B6D0800EB8505A7
:109F8000131DA942A3EB01022CD9994202D0284605
:109F900081F0EAFA2B68E36003F5FC73236105EBBB
:109FA0000803636255F80830E36103F5FC736561EB
:109FB00023624FF4FC70656A76F0BAF968603D463A
:109FC0000FCDA6690FC695E80700636A86E807000B
:109FD0001A1D5B68626203F5FC72E3612262A36191
:109FE000BDE8F0879942D5D008F10400801A2844D2
:109FF000CEE703F10209012B2CBF994409F10109B5
:10A00000B9F1005F01D37CF0D5F94FEA890076F011
:10A010008FF9626A6169A9EB050504326D08914206
:10A02000824600EB850503D0521A284681F09CFA3F
:10A03000206874F0BFFBC4E900A9ABE7244992048F
:10A04000C2FC0A0073B5044616460D4619B912B192
:10A050000D487CF0B2F9731B0F2B019307D9002236
:10A0600001A920467CF014FB019B2060A3603246CE
:10A07000294620687CF0A1FB019B226863600021D7
:10A08000D15402B070BD00BFF2FC0A0010B500F15F
:10A090000803044603600A444FF00003FFF7D2FFB1
:10A0A000204610BDFFF7CEBF036870B5044663B10C
:10A0B000436A45691E1DAE4204D955F8040B74F07D
:10A0C00079FBF8E7206874F075FB204670BD0368E3
:10A0D00082681C339342036008D1C3681A1D5B6811
:10A0E000C26003F5FC72436082600360704744DF26
:10A0F000704743DF704742DF7047064B1868043BE8
:10A100001B68082B04D103288CBF00200120704756
:10A110000020704734010010034B1B68DB0700D59B
:10A1200000BE0020704700BFF0ED00E010B5002237
:10A1300004460846042174F071FC0023206063602B
:10A1400028B9044B044A0548162155F0E9F9204680
:10A1500010BD00BF2E360B006CA40B001CFD0A00C6
:10A1600037B504461420019176F0E2F801990546CE
:10A170001AF08EF9256003B030BD022A70B505468D
:10A1800007D0032A13D0012A01D10B6803600020F5
:10A1900070BD0C68142076F0CBF82146064651F8C5
:10A1A000043B40F8043B18F0A1FC2E60EFE7FCF7FD
:10A1B00035FCECE7E1E7022A70B5054607D0032A33
:10A1C00013D0012A01D10B680360002070BD0C6818
:10A1D000142076F0ADF82146064651F8043B40F8CD
:10A1E000043B18F083FC2E60EFE7FCF717FCECE76C
:10A1F000022A70B5054607D0032A13D0012A01D1DF
:10A200000B680360002070BD0C68142076F090F895
:10A210002146064651F8043B40F8043B18F066FC22
:10A220002E60EFE7FCF7FAFBECE7E1E7022A70B5F6
:10A23000054607D0032A13D0012A01D10B68036019
:10A24000002070BD0C68142076F072F82146064696
:10A2500051F8043B40F8043B18F048FC2E60EFE74F
:10A26000FCF7DCFBECE7E1E7E0E7DFE71FB50446DE
:10A27000684618F03BFC21466846FFF7ADFC68468F
:10A2800071F0CEFC204604B010BD7FB56E460C4682
:10A290000546014630460AF083FC94E80F0085E845
:10A2A0000F0096E80F0084E80F0004B070BD7FB582
:10A2B0006E460C4605460146304618F026FC94E8EA
:10A2C0000F0085E80F0096E80F0084E80F0004B047
:10A2D00070BD00BF014B93F858017047F083002018
:10A2E000014B93F849017047F0830020014B93F82C
:10A2F00062017047F08300202DE9F041DFF8C88348
:10A30000C64BC74DC74E404694B0442240F80C3B64
:10A310000021002481F042F9C34BC8F8083008F14D
:10A32000540188F80440012074F022FCBF4BC8F8A7
:10A330005000C8F80030BE4ABE4940467BF080FE5F
:10A34000BD48BB4ABD49C0F884404FF40053A0F853
:10A350008030BB4BC0F88830A0F89C407BF070FE8A
:10A36000B84B0822DC60C3E901441A701C82B64B6A
:10A37000B64A1C705C70B64B01271A60B54A1F7153
:10A38000D2F8B4101973D2F8AC109973D2F8B01097
:10A390005973DC731C829C60AF4BB0491C7119600F
:10A3A000516F1973D1689973926F5A739C60DC7303
:10A3B0001C821923C5E90055AC60AC812B614FF4B8
:10A3C0007A732B62AE61C5F82880C5E90C44AC7382
:10A3D000AC82EC6185F82C408022214605F17C009E
:10A3E00085F8384085F8784081F0D8F888222146F1
:10A3F00005F1FC0081F0D2F88D4A994928467BF09E
:10A400001FFE98488A4A98498460C0E900007BF0A2
:10A4100017FE9648864A94498460C0E900007BF0A4
:10A420000FFE9348824A90498460C0E900007BF0A7
:10A4300007FE904870F000FA7D4A8F498D487BF006
:10A44000FFFD4FF4A47075F073FF06F12403054679
:10A45000202240F8043B214681F0A0F86C621022D3
:10A46000214605F1280081F099F82122214605F1C5
:10A47000380081F093F82022214605F1590081F03F
:10A480008DF82022214605F1790081F087F82022FD
:10A490002146C5F89C4005F1A00081F07FF885F8C1
:10A4A000C04005F1C40070F0C7F92022214605F133
:10A4B000C80081F073F82022214605F1E80081F000
:10A4C0006DF82022214605F5847081F067F820227E
:10A4D000214605F5947081F061F806F170032B6058
:10A4E000664B67481D6006F1BC08664B10930EA9C9
:10A4F000CDF838808DF83E40ADF83C4011944AF0DC
:10A50000D1FB4B4A60495E48604D7BF099FD604B42
:10A51000604810930EA9CDF838808DF83E40ADF814
:10A520003C40119403F0DAF8414A5B4959487BF00A
:10A5300087FD5A4B5A4810930EA9CDF838808DF8F4
:10A540003E40ADF83C40119403F0C8F8384A5249F7
:10A5500053487BF075FD534B534810930EA9CDF82B
:10A5600038808DF83E40ADF83C40119403F0B6F8C9
:10A570002F4A49494C487BF063FD4C4B4C481093A3
:10A580000EA9CDF838808DF83E40ADF83C401194CE
:10A5900003F0A4F8264A404945487BF051FD41F6B6
:10A5A0000A030EA92846CDF83880ADF83C30CDE935
:10A5B00010448DF83E704AF075FB284606F1CC0336
:10A5C00040F8183B2422214680F0E8FF394BEB612C
:10A5D0001523C5E90F4485F83D30374BEB62052361
:10A5E00085F84130354B2B63132385F8423085F8CD
:10A5F00044402846324D0E4A32497BF021FD41F657
:10A600000F030EA92846CDF83880ADF83C30CDE9CF
:10A6100010448DF83E704AF045FB57E048310B007E
:10A62000100D012048FD0A006440002058310B0045
:10A6300000400020FDDF0200C89100202DF903003A
:10A6400080EE3600FC130120C824012000F00240F7
:10A65000D024012068DD0C00E424012000300240F9
:10A66000ABA50400F824012099F30700042501207C
:10A6700010250120302501202BA8090034250120B8
:10A68000F427012032DD0C00030308007C280120A0
:10A6900043DD0C003825012001D7020053DD0C00FA
:10A6A0003429012021DD0C008C2B012010DD0C0051
:10A6B0009025012084DE0C0055F80A005BF80A00A2
:10A6C000C428012001030800084F0020284606F195
:10A6D000E00340F8183B0EA942F61923ADF83C30D0
:10A6E000CDF83880CDE910448DF83E7002F0F6FFC9
:10A6F0002846BC4DBC4ABD497BF0A2FCBC4BCDF802
:10A7000038800EA9284610938DF83E40ADF83C40A5
:10A7100011944AF0C7FA284606F1F40340F8183BB2
:10A720000EA9B44BCDF8388010938DF83E40ADF8AB
:10A730003C40119402F0D2FF06F584732B60AA4AC4
:10A74000AD4928467BF07CFC234622462146AB4897
:10A75000009472F0A1FEAA48AA4D70F06DF8A24ACA
:10A76000A949A7487BF06CFCA84870F065F89E4AA0
:10A77000A549A6487BF064FCA5489B4AA54904600E
:10A780007BF05EFCA448984AA24904607BF058FC28
:10A79000A24B2B61A24BEB602846A24B6B6106F5E6
:10A7A0008E7340F8183B6D6045F2C072214680F010
:10A7B000F5FE362221469C4880F0F0FE28469B4D4F
:10A7C000894A9B497BF03CFC28464FF4D0722146D5
:10A7D00000F8044B80F0E2FE4FF4D072214605F5FC
:10A7E000D27080F0DBFE93487F4A93498460C0E9D1
:10A7F00000007BF025FC9148914D7B4A9149C46350
:10A80000C0E90144C0E90344C0E90544C0E9074484
:10A81000C0E90944C0E90B44C0E90D447BF010FCD9
:10A82000894B2B612846894BEB6006F59A7340F8FB
:10A83000183B6D606C614FF4FB52214680F0AEFE18
:10A8400010222146824880F0A9FE674A81492846A5
:10A85000814D7BF0F5FB814B2B612846804BEB60F3
:10A8600006F5A67340F8183B6D606C612022214606
:10A8700080F094FE5C4A7B49AC6328467A4D7BF0BD
:10A88000DFFB7A4B2B612846794BEB6006F5B27300
:10A8900040F8183B6D606C614FF4F062214680F027
:10A8A0007DFE514A7349C5F8984728467BF0C8FB9E
:10A8B00071481022214620F8024B80F06FFE6F494C
:10A8C000494A6F487BF0BCFB5C2075F031FD0546C2
:10A8D00004F033FD2B466B4A43F8382BC5E90E33A1
:10A8E00006F5BE736B63684B2C64C5E912344FF4F4
:10A8F00000734FF00208A5F85830644B6D6485F87A
:10A9000050806C6585F85A806F62CC201D6075F0B0
:10A910000FFD054604F011FD2B465D4A43F8382B28
:10A92000C5E90E3306F5C8736B635A4B2C64214698
:10A930007422C5E912346D642C6505F1540080F071
:10A940002DFE554BC5F8C840C5F8248058201D6021
:10A9500075F0EEFC054604F0F0FC2B464F4A43F838
:10A96000382BC5E90E334E4B2C64C5E91234032352
:10A970006B6206F5D2764B4B6E636D642C65A5F861
:10A98000544085F856406C201D6075F0D1FC05469A
:10A9900004F0D3FC2B46444A43F8382BC5E90E3368
:10A9A000424B6B63424B434E434A444831782C64DC
:10A9B000C5E9123405F15C03C5E9153404236B6263
:10A9C0003F4B6D641D60338813803E4A2C651380B5
:10A9D0003D4A85F85C4013803C4A846013803C4AC1
:10A9E000138077E00C2801200040002005030800B8
:10A9F00059160C0069160C00070308005C81002042
:10AA0000E0130120009800202BA80900E413012086
:10AA10008C10012031C8060098130120BD6402008B
:10AA2000B16502006FF80A00D8EF0020B89400204A
:10AA3000F9000400A011012099F30700408E0020C6
:10AA4000BC5F00202DAB0300F1640200AB65020087
:10AA5000347F002011860300D8570020E7640200ED
:10AA6000AD650200E785030018580020DD64020090
:10AA7000AF650200B9850300C0570020D349090023
:10AA80005437012074330B0077EE02004037012069
:10AA900084A40B0011EA04008837012060840B00B5
:10AAA000C92304008C37012088B90C0004BA0C00BB
:10AAB000514F0900973A012070370120000D012005
:10AAC0009437012073370120643701206637012055
:10AAD00068370120504B727859709A701C704F4A39
:10AAE0004F49C0E900447BF0ABFA4E484B4A4E490F
:10AAF00084607BF0A5FA4D48484A4D4984607BF05C
:10AB00009FFA4C48454A4C498460C0E900447BF0B8
:10AB100097FA4A48414A4A498460C0E900447BF0B8
:10AB20008FFA48483D4A46498460C0E900447BF0BA
:10AB300087FA4548394A45498460C0E900447BF0BA
:10AB40007FFA434B3025013D1C7303F10E03FAD10C
:10AB50004048324A38498560C0E900557BF070FAB8
:10AB60003D482E4A3D49057200F10803C0E9003511
:10AB70007BF066FA3A483B4C284A3B498560C0E97D
:10AB800000557BF05DFA012714222946C4E90055DF
:10AB9000A56004F10C0080F001FD204A33493448DF
:10ABA0002565C4E90855C4E90A55C4E90C55C4E94A
:10ABB0000E55C4E91055C4E9125584F854707BF061
:10ABC0003FFA2C48154A2C4905607BF039FA2B4B8B
:10ABD0002B481D705D709D703570757020F024F8E5
:10ABE0000E4A284926487BF02BFA274820F01CF80B
:10ABF0000A4A244924487BF023FA0322294638468E
:10AC000073F00CFF214B1860002847D1204B214ADC
:10AC100021480C2154F084FC7637012000400020AC
:10AC2000B9690200EC520020116A0200B4550020FC
:10AC3000116A0200E4110120CDA60900F0110120E3
:10AC400039240400CC110120D8110120392404003A
:10AC5000CC3701206C3A0120783A0120E7680A00DD
:10AC6000EC55002004560020EF950200E197020009
:10AC7000980E0120903A012031C80600943A012034
:10AC8000305100208DFA020004520020D4520020DE
:10AC90007DF80A006CA40B0087F80A009F4CA04ABC
:10ACA000A049A14F18467BF0CBF9A560C4E9004448
:10ACB00004F10C0009F04AFF994A9C4920467BF0B8
:10ACC000BFF99B4B9B4A9D60C3E900259A4ADA6015
:10ACD0009A4B9B4A9D60C3E900259A4ADA609A49DB
:10ACE0009A4B9B489B4CC3E90252C3E900159A4B0F
:10ACF0009A4A1A609A4A5A609A4A9A609A4ADA605C
:10AD00009A4B9B4A9D60C3E900259A4ADA609A4BA8
:10AD10009A4A9D60C3E90025994ADA60994B9A4A9C
:10AD20009A49C3E900259A4A9A609A4ADA609A4B8E
:10AD30009A4A9D60C3E90025994ADA60994A1160F0
:10AD400099498560C2E901159849D160984A9949A5
:10AD5000116099495160994991609949D160C0E960
:10AD600000356F4A9749C0F8EC5080F8F0507BF0FE
:10AD700067F99548954B03610523037104F14C0372
:10AD800000264FF04008036204F15803C0E909357A
:10AD9000634A8F4905730575856105778560046091
:10ADA00080F82D80456386637BF04AF989488A4B99
:10ADB00003612223037104F16403036004F1B0030F
:10ADC000036204F1BC03436242F21073544A8349A4
:10ADD0000573057585610577856080F82880C762F1
:10ADE000C663A0F8403080F84280476406638663FB
:10ADF000466385647BF024F979487A4B0361042328
:10AE0000037104F1C803036004F58A73036204F557
:10AE10009073434A744905730575856105778560AC
:10AE200043627BF00DF97148714B03610E2303718E
:10AE300004F59673036004F5BC73036204F5C273F2
:10AE40004362422380F834306A4B354A6A490573BD
:10AE5000057585610577856087638362C3620363D7
:10AE6000C5637BF0EDF86548654B03611C230371F6
:10AE700004F5C873036004F5EC73624E284A624916
:10AE80000573C0E9083505758561057785607BF038
:10AE9000D7F85E4902A803F019FA304603F036F9F4
:10AEA00006F13003C6E90A3502AA0EA8584986F809
:10AEB000305003F055F957490EA87BF003FF0146C7
:10AEC00008A87BF0F6FC08A906F128007BF011FD2C
:10AED00008A87BF0FFFB0EA87BF0FCFB03F09CF9BD
:10AEE00002A87BF0F7FB0E4A4B4930467BF0A8F8EE
:10AEF0004A4B83F8E45083F8E850494B4FF47A7298
:10AF00009A6004F5F2721A6004F503744FF47F42FC
:10AF10005D601C619A8214B0BDE8F0817456002017
:10AF20000040002079A80900A0400120034C030044
:10AF3000E03B012085B70900B3F80A00F03B01208F
:10AF400069B70900BCF80A004BB70900D03B0120E3
:10AF5000003C012000FF0A00B03B01207DBC09003D
:10AF6000CD650200CB6502000C8C0B00803B0120FC
:10AF700059BC0900C0F80A00903B012019BD090026
:10AF8000C3F80A00C03B012033BC0900F1BC090032
:10AF9000D9650200C8F80A00A03B0120BD6202008A
:10AFA000CFF80A00703B012037B70900D4F80A0037
:10AFB000603B0120BDBC090025B70900D565020032
:10AFC000D7F80A0079650300FC4F0020DDF80A007D
:10AFD00075F3020038500020E4F80A00B3F30200D1
:10AFE00084500020EBF80A00B1F30200BC500020AE
:10AFF000F2F80A00CDCCCC3DAFF3020000510020A6
:10B00000FAF80A00AC4F0020ADF3020096550B0091
:10B0100003F90A000EF90A001DE702001C4E002089
:10B02000F049002007B503688DF807105B6801221E
:10B030000DF10701984703B05DF804FBA0F1100083
:10B0400000F032B9407DFF2801D071F085B970471A
:10B0500010B5437DFF2B0CD0074A4FF4567000FB10
:10B06000032001F061FB044608B975F0AFFD2046EE
:10B0700010BD0020FCE700BF583D01202DE9F74F2F
:10B08000437DFF2B06460F4614462FD015464FF43E
:10B09000567A4FF6FE7B15B3707D71F0ABF9F0B1C7
:10B0A000737D134A01930AFB03294FF6FF7209F1DE
:10B0B00024095D4598BF2A4692B23946484601F0B8
:10B0C00097FA8046484601F02FFB3F28019B02D9A2
:10B0D000184671F041F9B5EB0805474403D1601BF0
:10B0E00003B0BDE8F08F75F071FDD4E70020F7E7FD
:10B0F000483D012008B5437DFF2B07D0044A4FF49B
:10B10000567000FB032001F0FDFA08BD0020FCE7AB
:10B110006C3D012073B5437DFF2B14D04FF4567462
:10B120005C430A4E04F1100001220DF10701304486
:10B1300001F08EF90546301971F072F91DB19DF8D4
:10B14000070002B070BD4FF0FF30FAE7483D012024
:10B1500073B5457DFF2D03D14FF0FF3002B070BDB8
:10B16000254E4FF4567303FB0563186A18B14FF070
:10B17000FF3173F0E5FD4FF4567202FB0562118B4F
:10B18000538B908A89B29BB2994236BFC3EB40027F
:10B19000CA1A521894B2E4B1A04209D281424FF4C3
:10B1A00056722CBF0B1A0B1802FB05629BB253831D
:10B1B00098421ED94FF4567101FB05610DF107004D
:10B1C000CA8A0969C2F30E0202FB031180F0BEF9BC
:10B1D00001244FF4567303FB0565286A20B1002350
:10B1E0001A46194673F040FC002CB5D09DF80700B4
:10B1F000B4E71B1A9BB2DBE7483D012010B5194BA1
:10B200005A7DFF2A2CD11A7E52BB174C5A75012148
:10B21000197694F850110B2908D84A1C84F850214B
:10B2200001F14802114844F822000A461A75B4F8A0
:10B230001821B4F81A3161690A489B1A9BB20A4472
:10B2400094F81C1100F030F850B1B4F818311844DB
:10B25000636980B2A4F81801588094F81C211A710F
:10B2600010BD00BFF04900200C4A00209C2F0B00AD
:10B2700010B5407DFF2807D071F0BCF8044608B92E
:10B2800075F0A4FC204610BD0024FBE7034B9B682F
:10B29000B3F5966F01D171F037BA7047483D012080
:10B2A00009B900B9F2E770472DE9F047074692B0B7
:10B2B00098461546002A00F090804B4B93F81C618D
:10B2C00093F81D1193F81EA1B21C83F81C214C1C8D
:10B2D0008A1C83F81D2164F07F040AF1010241F009
:10B2E0008009E4B283F81E214222002101A880F0E7
:10B2F00055F9002D6DD0B8F1410F73D940F20220FD
:10B30000ADF8080040F20940ADF80C0040F2012011
:10B31000ADF8100024208DF8160034480690731CF8
:10B320000120DBB28DF806608DF80E608DF81C00F0
:10B330008DF826602E48397D8DF81E30032640F6A4
:10B34000083208908DF8273040F224608DF82B6089
:10B350008DF8313008260A230427ADF804208DF833
:10B36000141002220521ADF824008DF82C6040F263
:10B3700007508DF834304FF4116640238DF80720C4
:10B380008DF812208DF81510ADF828008DF83320B7
:10B39000ADF838008DF83B208DF81F708DF82A909D
:10B3A000ADF82E608DF830708DF83AA08DF83C30F5
:10B3B00007238DF83F308DF8401044F202034222FB
:10B3C0000DEB070128468DF84140ADF8423080F082
:10B3D000BDF8422012B0BDE8F0879246144691466F
:10B3E000164681E70020F5E70C4A002020010524DD
:10B3F000240202057FB5204B204A03F110061446B3
:10B4000018685968154603C50833B3422A46F7D170
:10B410001B4A1B88106851682B8001AB03C3127A4A
:10B420001A7004AA12E90700164B03C3194603F564
:10B43000887001F80829144AC4F818214FF4807262
:10B44000A4F81C210122616184F81E210021202220
:10B4500080F0A4F840F20943C4F820310B4BC4F843
:10B4600024310B4BC4F828310023C4F82C310423B9
:10B4700084F8503104B070BDB72F0B000C4A002087
:10B48000C92F0B00244A002009000001AB2F0B003C
:10B4900084DE0C00F0B50546002004462B5D2E1915
:10B4A000002B68D003F14002D2B2012A3DD9F42B1F
:10B4B0003BD81A061BD40122A3F55846B6F5006FF7
:10B4C00033D3B3F5803F14444FD31E2853DCA3F588
:10B4D000803342009E0A0A44C3F30903A6F52056AE
:10B4E000A3F5105321F8106002305380D6E703F023
:10B4F000E002C02A1BD103F01F03022206F1010C57
:10B5000016441CF8017B07F0C00EBEF1800F0CD171
:10B5100007F03F07664547EA8313F2D1022A16D1A6
:10B52000A3F18006B6F5F06FC6D30134B6E703F099
:10B53000F002E02A03D103F00F030322DEE703F059
:10B54000F802F02AF1D103F007030422D6E7032A18
:10B5500004D1A3F50066B6F5784FE5E7A3F5803290
:10B56000B2F5801FE1D20422A6E7202803D021F8FB
:10B570001030013092E7F0BD0B6802490B610121E8
:10B58000184700BFF43C01202DE9F041174C184F3B
:10B590008046002518262279EBB29A4212D2382230
:10B5A000002114487FF0FAFF1022FF2104F1090066
:10B5B0007FF0F4FF04F119001222BDE8F041FF21F1
:10B5C0007FF0ECBF0AD9226806FB03234BB90A4B74
:10B5D0001B68DB0700D500BEBDE8F0819B1A06FBA7
:10B5E00003735B68404698470135D4E7A04B0020C1
:10B5F000E02F0B00A54B0020F0ED00E02DE9FF410E
:10B600004378474C023B0546042B12D8DFE803F091
:10B6100003291B226F0063796FF300036371637961
:10B6200000226FF341036371A271637962F38203B5
:10B630006371206C00295FD10B464FF0FF32294621
:10B6400073F012FA2EE06379D8072BD5637943F0B3
:10B650000403EDE76379DA0724D563796FF3820396
:10B66000E6E763795B0715D563796FF3820363714E
:10B670000278206C0023CDE901338DF804200522E7
:10B6800003938DF8052081B90B464FF0FF3201A9D5
:10B6900073F0EAF9DFF89080002618272279F3B2D8
:10B6A000934214D904B0BDE8F0816A4601A9009321
:10B6B00073F073FA009B002BECD01A4B4FF08052C2
:10B6C0005A6040BFBFF34F8FBFF36F8FE2E70AD2DC
:10B6D000226807FB032323B15B6913B169682878EB
:10B6E00098470136DAE79B1A07FB0383F4E7237ACE
:10B6F0000133DBB223729CE7002301AA29460193A0
:10B7000073F04BFA019B002BCCD0064B4FF08052CC
:10B710005A6040BFBFF34F8FBFF36F8FC2E700BFC8
:10B72000A04B002000ED00E0E02F0B002DE9FF47CB
:10B73000474D074600F07F0005EB400606EBD716A5
:10B740002536B47914F001044FEAD71E4FEA4003BE
:10B7500006D0FEF7E1FC0446204604B0BDE8F087C1
:10B7600096F806C0DFF800814CF0010C86F806C0A0
:10B7700003EB0E0C4FEA0C1908EB0C1C46469CF828
:10B780000BA0BAF1000F17D0324A1168C90700D5D3
:10B7900000BE2B44734493F82B106FF3000183F821
:10B7A0002B1093F82B106FF3820183F82B10136882
:10B7B000DB07D1D500BECFE748F80910ACF804206C
:10B7C000ACF8064008BB02BB234BD3F88034C3F36C
:10B7D000C0139E4519D0214800F0D0FF204B596876
:10B7E0000394C1F3080100394FF4E06318BF01214D
:10B7F00001A8CDE90144ADF804308DF808708DF84A
:10B800000940FFF7FBFE0124A6E70125BEF1000F6A
:10B810001AD106EB4012D57218B9124800F0AEFFEB
:10B82000F1E7BFF36F8FBFF34F8F937A03F0FF04FD
:10B8300043B1D37A03F0FF05002B8DD082F80AE0E4
:10B8400001F004F92C4687E701F08AF9FAE700BF16
:10B85000A04B0020F0ED00E000700240507002406C
:10B8600000ED00E04C700240F84C0020F8B5194A99
:10B8700000F07F0302EB430303EBD01000F125043B
:10B8800090F82B5015F0010521D190F82B30590775
:10B89000C3F3800717D4566C4FF0FF31304673F076
:10B8A0004FFAA57915F001050FD1A3795B0704D4F0
:10B8B000A37943F00403A371012500231A46194616
:10B8C000304673F0D1F82846F8BD3D46F5E700252F
:10B8D000F9E700BFA04B002070B4827802F07F032C
:10B8E000082B07D9524B1B68DB0700D500BE002090
:10B8F00070BC70474F49C478CD79818804F0030447
:10B90000022CC1F30A010BD0032C45D0012C11D11C
:10B91000022D40F2FF3408BF4FF48064A1420DE0D5
:10B92000022D0AD1B1F5007F09D0414B1B68DA071F
:10B9300000D500BE70BCFEF7EFBB4029F5D83E4EE7
:10B940005C0004EBD21406EB0414D5092181C17804
:10B9500001F0030101292FD00120384900FA03F436
:10B9600005BB03F10C06B040C1F80403D1F814057F
:10B9700003F594730443C1F8144541F823502F4B49
:10B98000C3F8182542F48072C3F80C25BFF36F8FFB
:10B99000BFF34F8F0120ABE7022D0CBF4FF4806443
:10B9A0004024BBE702339840C1F80403D1F81035B6
:10B9B0001C43C1F81045E2E7082B93D11F4BDDB9BA
:10B9C000B6F8182112B18022C3F81C250022C3F852
:10B9D0005021D3F8002312F4001208BFC3F85421F9
:10B9E000164B4FF44012C3F80423D3F8142542F445
:10B9F0008072C3F81425C9E70022C3F82C21B6F8D9
:10BA0000082112B18022C3F81C250C4BD3F8002367
:10BA100012F4001208BFC3F85421094AC3F80423E2
:10BA2000D3F8102542F48072C3F81025AEE700BFAA
:10BA3000F0ED00E0A04B0020F84C00200070024028
:10BA4000000820002DE9F04FB44B1B78FF2B93B07A
:10BA5000834600F01D844FF47A72002380024FEA7F
:10BA60009B517EF0ABFE012838BF01200390AC4C07
:10BA7000BBF1FF3F206C26461BD0039BBBF1000FA0
:10BA800014BF1A46002207A973F0E0F8002800F05E
:10BA9000FF839DF81D30013B072B00F2A683DFE8F2
:10BAA00013F00A001C00A403040412042B008103F9
:10BAB0001E045A46E7E79DF81C00FFF765FD99480C
:10BAC000142200217FF06AFD9DF82030E371206C84
:10BAD00073F0CCF90028CAD1DAE39DF81C00FFF717
